:040000006F00D04776
:10000400B756004083D78641898BEDFF83D70640DE
:10001400C207C18393E707502390F640B7560040C8
:1000240083D74641858BEDDF93170501C183239860
:10003400F640B756004083D74641898BEDDF83D71E
:10004400864105892388A1808280B756004083D7E2
:10005400464193F70708E5DF420541812398A6400E
:10006400828083C7018199EFB756004083D7464108
:10007400918BEDDF83D70640C207C18393E7072046
:100084002390F6408280511122C22A841305200253
:1000940006C4BD37130524001375F50F7D373705E6
:1000A40000201305050006042A9403540400135584
:1000B4008400613F1375F40F493F1244A24031019B
:1000C4004DB7375720529387C1C2130767D498C3DB
:1000D4003767696F13071746D8C38280511106C466
:1000E400CD37B70700209387070003D70700A24046
:1000F4000145136707102390E700310169B74111E7
:100104001305100222C406C626C2DD3D938501C232
:100114008146138401C2375600401543194583575D
:10012400464193F70704E5DF03570641420741833D
:100134002207420741836394660283570640C2073D
:10014400C18393F7F7BFC207C1832310F6408357D7
:100154000640C207C18393E707202310F640835764
:10016400464193F70704E5DF83570641850693F676
:10017400F60F93F7F70F5D8F2390E5008905E39061
:10018400A6FAC5358357040011677D8F15C7B704D8
:1001940000209384040003D7240005453EC03D9B02
:1001A4002391E400CD3503D7040001451377F7EF1D
:1001B4002390E400C93D8247C207C18763D307087F
:1001C400B70700209387070083D407000145DD9813
:1001D400C204C180239097007D35B7070020938720
:1001E400070093E48400239097000145693D8357F9
:1001F4002400C18BB9E78357640013F7078031E308
:10020400860713868181998B8356A4003E96034505
:10021400060093D586001387818193F6F60F631742
:10022400B5021386C1C23E962300A60085073E97F9
:1002340003460700631FD6001387C1C2BA97238001
:10024400D700B24022449244410182802300B60088
:10025400F1BF2300D700F5B71317050141839307B6
:10026400F00763E0E708C205C1819307F00363EA7E
:10027400B70685476308F60209476305E60435E2D5
:1002840013D735001E072A97138501823A959D8955
:10029400B397B7008345050093C7F7FFED8F23009D
:1002A400F500828093D735009E07AA9713850182B3
:1002B4003E959D893316B600834505004D8E230077
:1002C400C500828013D735001E072A971385018243
:1002D4003A959D89B395B70083470500BD8D2300EA
:1002E400B5008280011122CC06CE26CAAE872A84AC
:1002F4003303C500634E6402F2406244D244056194
:1003040082803A86A68522851AC816C636C43EC29D
:100314003AC09937850402479247A246B242424303
:10032400C204C184E3CF54FC050442044184D9B718
:10033400BE84B382D700FDB7130141FD22D226D07B
:1003440006D4AA8732833A84AE84AE9663C4D406B4
:10035400A250125482541301C10282800347040044
:100364000504A6859383740063DEB300330554004B
:100374004205418533876700E342E5FEA104C204D8
:10038400C184E9B71376170036CE16CC1ECA1AC834
:100394003EC63AC42EC22AC0C13592452247F2460F
:1003A4008505C205E242D2434243B2470245C185B4
:1003B40005835DBFB382874055BF0567931745002A
:1003C400130707F0F98F3D895D8D42054185931729
:1003D40025005D8D8D67938737337D8D93171500C9
:1003E4005D8D9567938757557D8D931715005D8DAA
:1003F400420541818280130181FC06DA22D826D687
:100404002AC6B24783C7070099E7D2504254B25470
:10041400130181038280324713F4F70793F7070629
:1004240005073AC6638D07280114420441809317D7
:1004340024003E94B707002003C307010567130790
:10044400C7D34204A1473AC4418063E4670A994789
:10045400A24683954181228736970504834307008A
:100464004204054741806393E7008143A142039519
:10047400218193160301C1829394050136C016CEDF
:1004840085463ECC1ECA13F71300C1806311D30402
:100494003A861AC82AC28504C133C20412454243AB
:1004A400D243E247F242C184A685FD1293F2F20FD1
:1004B40093D31300E39D02FA0247FD1793F7F70F56
:1004C4003A95138721812310A700D9F31DBF9316F2
:1004D4000301C18636861AC82AC229358247F242E8
:1004E400D243B3859700C205E24742431245C18512
:1004F4006DBF254799476303E308A2462287050495
:100504003697420485460347070041806393D7002A
:10051400014783944181138304014203135303412C
:100524003ECC9382218103950200939604011376B5
:100534001700C182A6851ACE3AC836CA32C22AC06A
:10054400213BD2460245124693851600C205C18559
:1005540093842600113342477243C204C1849382B8
:1005640021810245E2470583E39C64FA0505FD17F2
:100574002390A20093F7F70FC9F361B59307140012
:10058400C207C1833EC8A2473E9483440400268523
:100594002D3595472A842A873EC2C2479386170081
:1005A400C206C18236C8A246B69783C707009246E0
:1005B4003EC085476393F60002C002453ACCF53B42
:1005C40062472ACAAA86B947994589420546024321
:1005D40033D5B4400D893353B340137333006312DE
:1005E40055026310C3041385F7FF3315A600498C25
:1005F400420441803315F60015A0524482443687E4
:1006040069BF6310C502631E53003315F600498C9D
:1006140042041385F7FF41803315A600C98EC20634
:10062400C182F917FD15C5F78392418193830201B5
:10063400C20393D30341968736D413832181831451
:10064400030013761700BE8526851ED216D03ACE37
:100654003ECC1931E247C204C180BE851385140023
:100664008507C2074205C1871376140041853ECC35
:10067400E5367247E24792530583058042074204F8
:10068400138321818252A25641834180E39677FAF3
:100694009247138524004205FD17418593F7F70F10
:1006A4002310A3003EC2B1FB0147C146094696850B
:1006B40015399104138321812310930099B3A94719
:1006C4006316F40223990180B707002083C607014B
:1006D400138741812146835707006367D6008E063E
:1006E400B6972310F70031BBC107E5BFB547E31A3E
:1006F400F4D02399018031B3B7F700E09C4737F772
:1007040000E03E951C47898FE3CE07FE82800111ED
:1007140022CC26CA06CE2A84AE8732C0B304C500D2
:10072400634F950293960701C18293856600C205C3
:10073400C18522856340950493847600C204C184F4
:10074400BE856397B40402477D173A9442044184FA
:10075400639BF404F2406244D24405618280BE8506
:1007640005463EC42AC2CD3C1245A24705054205B2
:1007740041857DB705463EC836C62EC42AC2E93C2B
:100784001245C247B24605054205A24541855DB7FB
:10079400054622853EC42EC2C1349245A247850532
:1007A400C205C18579BFBE85054622853EC06D342C
:1007B40082478507C207C18761BF130181FD06D245
:1007C40022D026CE2D3A138701823AC081471307DF
:1007D40000408246BE9623A006009107E39BE7FEF5
:1007E40037070020A5471385C1C22308F7002399C2
:1007F4000180239A01800131B7770040DC43370739
:10080400002013070701918B3AC21384218193843A
:100814004181639807140567130707D1C1461D4634
:10082400814513059007093E03D701C2D9570966CC
:100834002310F400D147930586FF2390F400931707
:10084400370006071377E77FED8FBA971306C61FA5
:10085400B297C207138701C2C183814215433AC4C8
:100864007D131373F30F1307F00F6310E310930753
:10087400E00505652310F400130545D093074002F5
:100884002390F4008D3E13878180A1461D46D145F7
:100894001305E00555346146D14513058006853DB1
:1008A400A2479306000403D7270025839377F70F05
:1008B40063F4E6009307000413D6270091833E9661
:1008C40019C605478D46D9451305A006213C124794
:1008D4009307800305652390F400130585D08547AD
:1008E4002300F7002310040039361306E0049305AF
:1008F400800313052003213DB707002003C417011B
:100904009304F002631D041013058007EFF04FEF0A
:100914000145EFF08FF31305000BEFF00FF30145E2
:10092400EFF0AFF24145EFF04FF2EFF08FF3130524
:100934008007EFF0EFEC13050004EFF00FF18247AE
:10094400A29703C507000504EFF02FF093070040BA
:10095400E317F4FE02549250F244130181026FF043
:100964004FF00567130707D255BD0567130707D373
:1009740093161300369703560700014763F9C70817
:1009840089466315D300850293F2F20F0315040020
:10099400638E02021316470093165700B296C206DE
:1009A4000A07C182BA96C2060567C1821307C7F156
:1009B4003697354693060002D14516CC3ECA1AC86E
:1009C4002AC69D3AE242D247424332459313050177
:1009D40093D3030113852301420541852310A40009
:1009E4000947E31FE3E605478D460D4693050003DB
:1009F4001ECC16CA3EC81AC6EFF0DF8EE243D242BE
:100A0400C2471385A30132432310A40091BD918FE3
:100A14000507C2071377F70FC183854285B713858E
:100A240054009374F50F05478D4611469305A003B2
:100A340026857D14EFF01F8B1374F40FE1B5B717FF
:100A440001409843B706F1FFFD164111758FB706B3
:100A5400080006C622C426C2558F98C3414798CBC6
:100A640003A707807D731306F30F0565718F1306C3
:100A74000580518F23A0E780914523A8B78003A761
:100A84000780370600103D031377F7F01367070854
:100A940023A0E780094723A8E78037170240544F73
:100AA400130505DD8564D18E54CFB776004090429E
:100AB4000144938444121366060190C29042137653
:100AC400F6F11366060490C2144F93E6160114CF90
:100AD4009443B3F66600C98E94C35C4FB7062000F6
:100AE40037250600D58F5CCF37570040E1772312B6
:100AF400B7409907231EF74085472310F740130595
:100B040005A8DD3E13058007EFF08FCF0145EFF018
:100B1400CFD3B387840003C507000504EFF0EFD2F9
:100B2400C547E318F4FEEFF0CFD3EFF08FD3EFF027
:100B34004FD937040020238A01C29307040083D4C9
:100B44000700014513E724002390E700EFF0AFD33B
:100B540093070400F598239097001305000293046B
:100B64000400EFF0EFC91304040083D704008904E0
:100B740013D587003EC0EFF04FCD824713F5F70F32
:100B8400EFF0AFCCB70700201387C700E39FE4FC66
:100B9400EFF02FCD1D31EFF0CFD28357240009673A
:100BA4001307076D93F7F703D98F2311F400054555
:100BB400EFF06FCD37350C0013050550353EEFF0DF
:100BC4000FD483D701C21167F98FEDD7EFF00FD19E
:100BD400B714014002C0D53683A78480898B91EB7A
:100BE400824799E3EFF08FCF3775020013050510A4
:100BF400213683A78480858393C7F7FF858B3EC006
:100C04009C44C18B9DCF83A78480918BE9F73707E0
:100C14000020834717011307170181C7FD1723001D
:100C2400F70083576400034707000D45C19BD98F24
:100C34002313F400EFF02FC583A78480918BEDDF9D
:100C440059BF3707002083471701B9461307170117
:100C540063E5F60085072300F70083576400034724
:100C640007000D45C19BD98F2313F400EFF0AFC1EA
:100C74009C44C18BF5DF41BF8567938727A4970107
:100C840000209381E1B8138101FF130580087310DC
:100C940005308D457390458017F5FFFF13054536E4
:100CA4004D8D7310553073901734B70700200567C6
:100CB40093870700130787139386018163E7D7029D
:100CC40093870181138781C363E7E702B717024063
:100CD40013070002D8C3954637F700E014C3984FB2
:100CE4001367470398CF730020301043110791070F
:100CF40023AEC7FEE1B7910723AE07FEF1B70000AC
:100D04004D487A00566F6C756D653A007C04070196
:100D14000784DC73464C4643417C00003464C7813D
:100D2400C76434584C4643464C58000001000A003E
:100D34006400E80310270000000000000000005FCA
:100D440000000007000700147F147F14242A7F2A60
:100D5400122313086462364955225000040300002C
:100D6400001C2241000041221C0014083E08140803
:100D7400083E0808008060000008080808080060B1
:100D840060000020100804023E5149453E44427F61
:100D94004040426151494622414949361814127F64
:100DA400102F494949313E49494932030171090724
:100DB4003649494936264949493E0036360000003D
:100DC4008068000000081422001414141414002273
:100DD40014080002015109063E415D555E7C121162
:100DE400127C7F494949363E414141227F4141229B
:100DF4001C7F494949417F090909013E4149493A52
:100E04007F0808087F41417F41412040413F017FE5
:100E1400081422417F404040407F020C027F7F043F
:100E240008107F3E4141413E7F090909063E414188
:100E3400C1BE7F09192946264949493201017F016A
:100E4400013F4040403F1F2040201F3F4038403F6B
:100E54006314081463070870080761514945430087
:100E64007F41410002040810200041417F00080432
:100E7400020408404040404000060909062054543A
:100E840054787F44444438384444442838444444DF
:100E94007F385454541808FE09010218A4A4A478F5
:100EA4007F0404047800447D40000080847D004178
:100EB4007F10284400417F40007C047C04787C043B
:100EC4000404783844444438FC2424241818242482
:100ED40024FC7C080404080854545420043F44406F
:100EE400203C4040403C1C2040201C3C4030403CC6
:100EF40044281028441CA0A0A07C4464544C4408FA
:100F0400083641410000FF0000414136080808044A
:100F1400081008FFFFFFFFFFFCF9F30707070707A7
:100F24000707F3F9FC7F3F1F000000000000001FCB
:100F34003F7FFFFEFC00000000000000FCFEFF1FDE
:100F44004F6770707070707070674F1F0000000002
:100F5400000000000000F0F8FC00000000000000A9
:100F64000000001F3F7F00000000000000000000A0
:100F7400FCFEFF00000000000000000000070F1F3F
:100F840000010307070707070707F3F9FC000080C0
:100F9400C0C0C0C0C0C0C09F3F7FFFFEFC010101B4
:100FA400010101010000001F4F67707070707070C4
:100FB4007060400000010307070707070707F3F9FC
:100FC400FC000080C0C0C0C0C0C0C09F3F7F000004
:100FD4000001010101010101FCFEFF00406070708D
:100FE4007070707070674F1FFCF8F0000000000014
:100FF4000000F0F8FC7F3F9FC0C0C0C0C0C0C09FCD
:101004003F7F00000001010101010101FCFEFF001E
:10101400000000000000000000070F1FFCF9F307A8
:101024000707070707070301007F3F9FC0C0C0C031
:10103400C0C0C080000000000001010101010101E5
:10104400FCFEFF00406070707070707070674F1F1E
:10105400FCF9F3070707070707070301007F3F9F12
:10106400C0C0C0C0C0C0C0800000FFFEFC010101C0
:1010740001010101FCFEFF1F4F67707070707070FA
:1010840070674F1FFCF9F307070707070707F3F912
:10109400FC7F3F1F000000000000001F3F7F000096
:1010A4000000000000000000FCFEFF000000000043
:1010B4000000000000070F1FFCF9F30707070707EC
:1010C4000707F3F9FC7F3F9FC0C0C0C0C0C0C09FEA
:1010D4003F7FFFFEFC01010101010101FCFEFF1F36
:1010E4004F6770707070707070674F1FFCF9F30772
:1010F400070707070707F3F9FC7F3F9FC0C0C0C07D
:10110400C0C0C09F3F7F0000000101010101010137
:10111400FCFEFF00406070707070707070674F1F4D
:10112400A83F8D14200021007F22003FDA12A1C8BD
:04113400AF00000008
:101138000DD2C015000A83880000000000000000DE
:1011480001030000000000000102047F0402010006
:00000001FF
